{
  "_format": "hh-sol-artifact-1",
  "contractName": "DePaymentToken",
  "sourceName": "contracts/DePaymentToken.sol",
  "abi": [
    {
      "inputs": [],
      "stateMutability": "nonpayable",
      "type": "constructor"
    },
    {
      "inputs": [
        {
          "internalType": "address",
          "name": "sender",
          "type": "address"
        },
        {
          "internalType": "uint256",
          "name": "tokenId",
          "type": "uint256"
        },
        {
          "internalType": "address",
          "name": "owner",
          "type": "address"
        }
      ],
      "name": "ERC721IncorrectOwner",
      "type": "error"
    },
    {
      "inputs": [
        {
          "internalType": "address",
          "name": "operator",
          "type": "address"
        },
        {
          "internalType": "uint256",
          "name": "tokenId",
          "type": "uint256"
        }
      ],
      "name": "ERC721InsufficientApproval",
      "type": "error"
    },
    {
      "inputs": [
        {
          "internalType": "address",
          "name": "approver",
          "type": "address"
        }
      ],
      "name": "ERC721InvalidApprover",
      "type": "error"
    },
    {
      "inputs": [
        {
          "internalType": "address",
          "name": "operator",
          "type": "address"
        }
      ],
      "name": "ERC721InvalidOperator",
      "type": "error"
    },
    {
      "inputs": [
        {
          "internalType": "address",
          "name": "owner",
          "type": "address"
        }
      ],
      "name": "ERC721InvalidOwner",
      "type": "error"
    },
    {
      "inputs": [
        {
          "internalType": "address",
          "name": "receiver",
          "type": "address"
        }
      ],
      "name": "ERC721InvalidReceiver",
      "type": "error"
    },
    {
      "inputs": [
        {
          "internalType": "address",
          "name": "sender",
          "type": "address"
        }
      ],
      "name": "ERC721InvalidSender",
      "type": "error"
    },
    {
      "inputs": [
        {
          "internalType": "uint256",
          "name": "tokenId",
          "type": "uint256"
        }
      ],
      "name": "ERC721NonexistentToken",
      "type": "error"
    },
    {
      "inputs": [
        {
          "internalType": "address",
          "name": "owner",
          "type": "address"
        }
      ],
      "name": "OwnableInvalidOwner",
      "type": "error"
    },
    {
      "inputs": [
        {
          "internalType": "address",
          "name": "account",
          "type": "address"
        }
      ],
      "name": "OwnableUnauthorizedAccount",
      "type": "error"
    },
    {
      "anonymous": false,
      "inputs": [
        {
          "indexed": true,
          "internalType": "address",
          "name": "owner",
          "type": "address"
        },
        {
          "indexed": true,
          "internalType": "address",
          "name": "approved",
          "type": "address"
        },
        {
          "indexed": true,
          "internalType": "uint256",
          "name": "tokenId",
          "type": "uint256"
        }
      ],
      "name": "Approval",
      "type": "event"
    },
    {
      "anonymous": false,
      "inputs": [
        {
          "indexed": true,
          "internalType": "address",
          "name": "owner",
          "type": "address"
        },
        {
          "indexed": true,
          "internalType": "address",
          "name": "operator",
          "type": "address"
        },
        {
          "indexed": false,
          "internalType": "bool",
          "name": "approved",
          "type": "bool"
        }
      ],
      "name": "ApprovalForAll",
      "type": "event"
    },
    {
      "anonymous": false,
      "inputs": [
        {
          "indexed": true,
          "internalType": "address",
          "name": "previousOwner",
          "type": "address"
        },
        {
          "indexed": true,
          "internalType": "address",
          "name": "newOwner",
          "type": "address"
        }
      ],
      "name": "OwnershipTransferred",
      "type": "event"
    },
    {
      "anonymous": false,
      "inputs": [
        {
          "indexed": true,
          "internalType": "address",
          "name": "from",
          "type": "address"
        },
        {
          "indexed": true,
          "internalType": "address",
          "name": "to",
          "type": "address"
        },
        {
          "indexed": true,
          "internalType": "uint256",
          "name": "tokenId",
          "type": "uint256"
        }
      ],
      "name": "Transfer",
      "type": "event"
    },
    {
      "inputs": [
        {
          "internalType": "address",
          "name": "to",
          "type": "address"
        },
        {
          "internalType": "uint256",
          "name": "tokenId",
          "type": "uint256"
        }
      ],
      "name": "approve",
      "outputs": [],
      "stateMutability": "nonpayable",
      "type": "function"
    },
    {
      "inputs": [],
      "name": "authorizedContract",
      "outputs": [
        {
          "internalType": "address",
          "name": "",
          "type": "address"
        }
      ],
      "stateMutability": "view",
      "type": "function"
    },
    {
      "inputs": [
        {
          "internalType": "address",
          "name": "owner",
          "type": "address"
        }
      ],
      "name": "balanceOf",
      "outputs": [
        {
          "internalType": "uint256",
          "name": "",
          "type": "uint256"
        }
      ],
      "stateMutability": "view",
      "type": "function"
    },
    {
      "inputs": [],
      "name": "baseURI",
      "outputs": [
        {
          "internalType": "string",
          "name": "",
          "type": "string"
        }
      ],
      "stateMutability": "view",
      "type": "function"
    },
    {
      "inputs": [
        {
          "internalType": "uint256",
          "name": "tokenId",
          "type": "uint256"
        }
      ],
      "name": "burn",
      "outputs": [],
      "stateMutability": "nonpayable",
      "type": "function"
    },
    {
      "inputs": [
        {
          "internalType": "uint256",
          "name": "tokenId",
          "type": "uint256"
        }
      ],
      "name": "getApproved",
      "outputs": [
        {
          "internalType": "address",
          "name": "",
          "type": "address"
        }
      ],
      "stateMutability": "view",
      "type": "function"
    },
    {
      "inputs": [],
      "name": "getLastTokenId",
      "outputs": [
        {
          "internalType": "uint256",
          "name": "",
          "type": "uint256"
        }
      ],
      "stateMutability": "view",
      "type": "function"
    },
    {
      "inputs": [
        {
          "internalType": "address",
          "name": "owner",
          "type": "address"
        },
        {
          "internalType": "address",
          "name": "operator",
          "type": "address"
        }
      ],
      "name": "isApprovedForAll",
      "outputs": [
        {
          "internalType": "bool",
          "name": "",
          "type": "bool"
        }
      ],
      "stateMutability": "view",
      "type": "function"
    },
    {
      "inputs": [
        {
          "internalType": "address",
          "name": "customer",
          "type": "address"
        }
      ],
      "name": "mint",
      "outputs": [
        {
          "internalType": "uint256",
          "name": "",
          "type": "uint256"
        }
      ],
      "stateMutability": "nonpayable",
      "type": "function"
    },
    {
      "inputs": [],
      "name": "name",
      "outputs": [
        {
          "internalType": "string",
          "name": "",
          "type": "string"
        }
      ],
      "stateMutability": "view",
      "type": "function"
    },
    {
      "inputs": [],
      "name": "owner",
      "outputs": [
        {
          "internalType": "address",
          "name": "",
          "type": "address"
        }
      ],
      "stateMutability": "view",
      "type": "function"
    },
    {
      "inputs": [
        {
          "internalType": "uint256",
          "name": "tokenId",
          "type": "uint256"
        }
      ],
      "name": "ownerOf",
      "outputs": [
        {
          "internalType": "address",
          "name": "",
          "type": "address"
        }
      ],
      "stateMutability": "view",
      "type": "function"
    },
    {
      "inputs": [],
      "name": "renounceOwnership",
      "outputs": [],
      "stateMutability": "nonpayable",
      "type": "function"
    },
    {
      "inputs": [
        {
          "internalType": "address",
          "name": "from",
          "type": "address"
        },
        {
          "internalType": "address",
          "name": "to",
          "type": "address"
        },
        {
          "internalType": "uint256",
          "name": "tokenId",
          "type": "uint256"
        }
      ],
      "name": "safeTransferFrom",
      "outputs": [],
      "stateMutability": "nonpayable",
      "type": "function"
    },
    {
      "inputs": [
        {
          "internalType": "address",
          "name": "from",
          "type": "address"
        },
        {
          "internalType": "address",
          "name": "to",
          "type": "address"
        },
        {
          "internalType": "uint256",
          "name": "tokenId",
          "type": "uint256"
        },
        {
          "internalType": "bytes",
          "name": "data",
          "type": "bytes"
        }
      ],
      "name": "safeTransferFrom",
      "outputs": [],
      "stateMutability": "nonpayable",
      "type": "function"
    },
    {
      "inputs": [
        {
          "internalType": "address",
          "name": "owner",
          "type": "address"
        },
        {
          "internalType": "bool",
          "name": "approved",
          "type": "bool"
        }
      ],
      "name": "setApprovalForAll",
      "outputs": [],
      "stateMutability": "nonpayable",
      "type": "function"
    },
    {
      "inputs": [
        {
          "internalType": "address",
          "name": "contractAddress",
          "type": "address"
        }
      ],
      "name": "setAuthorizedContract",
      "outputs": [],
      "stateMutability": "nonpayable",
      "type": "function"
    },
    {
      "inputs": [
        {
          "internalType": "string",
          "name": "newBaseURI",
          "type": "string"
        }
      ],
      "name": "setBaseURI",
      "outputs": [],
      "stateMutability": "nonpayable",
      "type": "function"
    },
    {
      "inputs": [
        {
          "internalType": "bytes4",
          "name": "interfaceId",
          "type": "bytes4"
        }
      ],
      "name": "supportsInterface",
      "outputs": [
        {
          "internalType": "bool",
          "name": "",
          "type": "bool"
        }
      ],
      "stateMutability": "view",
      "type": "function"
    },
    {
      "inputs": [],
      "name": "symbol",
      "outputs": [
        {
          "internalType": "string",
          "name": "",
          "type": "string"
        }
      ],
      "stateMutability": "view",
      "type": "function"
    },
    {
      "inputs": [
        {
          "internalType": "uint256",
          "name": "tokenId",
          "type": "uint256"
        }
      ],
      "name": "tokenURI",
      "outputs": [
        {
          "internalType": "string",
          "name": "",
          "type": "string"
        }
      ],
      "stateMutability": "view",
      "type": "function"
    },
    {
      "inputs": [
        {
          "internalType": "address",
          "name": "from",
          "type": "address"
        },
        {
          "internalType": "address",
          "name": "to",
          "type": "address"
        },
        {
          "internalType": "uint256",
          "name": "tokenId",
          "type": "uint256"
        }
      ],
      "name": "transferFrom",
      "outputs": [],
      "stateMutability": "nonpayable",
      "type": "function"
    },
    {
      "inputs": [
        {
          "internalType": "address",
          "name": "newOwner",
          "type": "address"
        }
      ],
      "name": "transferOwnership",
      "outputs": [],
      "stateMutability": "nonpayable",
      "type": "function"
    }
  ],
  "bytecode": "0x60806040526040518060400160405280601a81526020017f687474703a2f2f6c6f63616c686f73743a3330302f6e7466732f000000000000815250600990816200004a9190620004b9565b503480156200005857600080fd5b50336040518060400160405280600e81526020017f44655061796d656e74546f6b656e0000000000000000000000000000000000008152506040518060400160405280600381526020017f44505400000000000000000000000000000000000000000000000000000000008152508160009081620000d79190620004b9565b508060019081620000e99190620004b9565b505050600073ffffffffffffffffffffffffffffffffffffffff168173ffffffffffffffffffffffffffffffffffffffff1603620001615760006040517f1e4fbdf7000000000000000000000000000000000000000000000000000000008152600401620001589190620005e5565b60405180910390fd5b62000172816200017960201b60201c565b5062000602565b6000600660009054906101000a900473ffffffffffffffffffffffffffffffffffffffff16905081600660006101000a81548173ffffffffffffffffffffffffffffffffffffffff021916908373ffffffffffffffffffffffffffffffffffffffff1602179055508173ffffffffffffffffffffffffffffffffffffffff168173ffffffffffffffffffffffffffffffffffffffff167f8be0079c531659141344cd1fd0a4f28419497f9722a3daafe3b4186f6b6457e060405160405180910390a35050565b600081519050919050565b7f4e487b7100000000000000000000000000000000000000000000000000000000600052604160045260246000fd5b7f4e487b7100000000000000000000000000000000000000000000000000000000600052602260045260246000fd5b60006002820490506001821680620002c157607f821691505b602082108103620002d757620002d662000279565b5b50919050565b60008190508160005260206000209050919050565b60006020601f8301049050919050565b600082821b905092915050565b600060088302620003417fffffffffffffffffffffffffffffffffffffffffffffffffffffffffffffffff8262000302565b6200034d868362000302565b95508019841693508086168417925050509392505050565b6000819050919050565b6000819050919050565b60006200039a620003946200038e8462000365565b6200036f565b62000365565b9050919050565b6000819050919050565b620003b68362000379565b620003ce620003c582620003a1565b8484546200030f565b825550505050565b600090565b620003e5620003d6565b620003f2818484620003ab565b505050565b5b818110156200041a576200040e600082620003db565b600181019050620003f8565b5050565b601f82111562000469576200043381620002dd565b6200043e84620002f2565b810160208510156200044e578190505b620004666200045d85620002f2565b830182620003f7565b50505b505050565b600082821c905092915050565b60006200048e600019846008026200046e565b1980831691505092915050565b6000620004a983836200047b565b9150826002028217905092915050565b620004c4826200023f565b67ffffffffffffffff811115620004e057620004df6200024a565b5b620004ec8254620002a8565b620004f98282856200041e565b600060209050601f8311600181146200053157600084156200051c578287015190505b6200052885826200049b565b86555062000598565b601f1984166200054186620002dd565b60005b828110156200056b5784890151825560018201915060208501945060208101905062000544565b868310156200058b578489015162000587601f8916826200047b565b8355505b6001600288020188555050505b505050505050565b600073ffffffffffffffffffffffffffffffffffffffff82169050919050565b6000620005cd82620005a0565b9050919050565b620005df81620005c0565b82525050565b6000602082019050620005fc6000830184620005d4565b92915050565b612a2480620006126000396000f3fe608060405234801561001057600080fd5b506004361061014d5760003560e01c806370a08231116100c3578063a22cb4651161007c578063a22cb4651461038a578063a6591cdf146103a6578063b88d4fde146103c4578063c87b56dd146103e0578063e985e9c514610410578063f2fde38b146104405761014d565b806370a08231146102da578063715018a61461030a57806383c4c00d146103145780638da5cb5b1461033257806395d89b41146103505780639aad69e71461036e5761014d565b806342842e0e1161011557806342842e0e1461020857806342966c681461022457806355f804b3146102405780636352211e1461025c5780636a6278421461028c5780636c0360eb146102bc5761014d565b806301ffc9a71461015257806306fdde0314610182578063081812fc146101a0578063095ea7b3146101d057806323b872dd146101ec575b600080fd5b61016c60048036038101906101679190611dc8565b61045c565b6040516101799190611e10565b60405180910390f35b61018a61053e565b6040516101979190611ebb565b60405180910390f35b6101ba60048036038101906101b59190611f13565b6105d0565b6040516101c79190611f81565b60405180910390f35b6101ea60048036038101906101e59190611fc8565b6105ec565b005b61020660048036038101906102019190612008565b610602565b005b610222600480360381019061021d9190612008565b610704565b005b61023e60048036038101906102399190611f13565b610724565b005b61025a60048036038101906102559190612190565b6107fd565b005b61027660048036038101906102719190611f13565b610818565b6040516102839190611f81565b60405180910390f35b6102a660048036038101906102a191906121d9565b61082a565b6040516102b39190612215565b60405180910390f35b6102c4610955565b6040516102d19190611ebb565b60405180910390f35b6102f460048036038101906102ef91906121d9565b6109e3565b6040516103019190612215565b60405180910390f35b610312610a9d565b005b61031c610ab1565b6040516103299190612215565b60405180910390f35b61033a610abb565b6040516103479190611f81565b60405180910390f35b610358610ae5565b6040516103659190611ebb565b60405180910390f35b610388600480360381019061038391906121d9565b610b77565b005b6103a4600480360381019061039f919061225c565b610bc3565b005b6103ae610bfc565b6040516103bb9190611f81565b60405180910390f35b6103de60048036038101906103d9919061233d565b610c22565b005b6103fa60048036038101906103f59190611f13565b610c3f565b6040516104079190611ebb565b60405180910390f35b61042a600480360381019061042591906123c0565b610c79565b6040516104379190611e10565b60405180910390f35b61045a600480360381019061045591906121d9565b610d0d565b005b60007f80ac58cd000000000000000000000000000000000000000000000000000000007bffffffffffffffffffffffffffffffffffffffffffffffffffffffff1916827bffffffffffffffffffffffffffffffffffffffffffffffffffffffff1916148061052757507f5b5e139f000000000000000000000000000000000000000000000000000000007bffffffffffffffffffffffffffffffffffffffffffffffffffffffff1916827bffffffffffffffffffffffffffffffffffffffffffffffffffffffff1916145b80610537575061053682610d93565b5b9050919050565b60606000805461054d9061242f565b80601f01602080910402602001604051908101604052809291908181526020018280546105799061242f565b80156105c65780601f1061059b576101008083540402835291602001916105c6565b820191906000526020600020905b8154815290600101906020018083116105a957829003601f168201915b5050505050905090565b60006105db82610dfd565b506105e582610e85565b9050919050565b6105fe82826105f9610ec2565b610eca565b5050565b600073ffffffffffffffffffffffffffffffffffffffff168273ffffffffffffffffffffffffffffffffffffffff16036106745760006040517f64a0ae9200000000000000000000000000000000000000000000000000000000815260040161066b9190611f81565b60405180910390fd5b60006106888383610683610ec2565b610edc565b90508373ffffffffffffffffffffffffffffffffffffffff168173ffffffffffffffffffffffffffffffffffffffff16146106fe578382826040517f64283d7b0000000000000000000000000000000000000000000000000000000081526004016106f593929190612460565b60405180910390fd5b50505050565b61071f83838360405180602001604052806000815250610c22565b505050565b600860009054906101000a900473ffffffffffffffffffffffffffffffffffffffff1673ffffffffffffffffffffffffffffffffffffffff163373ffffffffffffffffffffffffffffffffffffffff1614806107b25750610783610abb565b73ffffffffffffffffffffffffffffffffffffffff163373ffffffffffffffffffffffffffffffffffffffff16145b6107f1576040517f08c379a00000000000000000000000000000000000000000000000000000000081526004016107e890612509565b60405180910390fd5b6107fa816110f6565b50565b61080561117c565b806009908161081491906126d5565b5050565b600061082382610dfd565b9050919050565b6000600860009054906101000a900473ffffffffffffffffffffffffffffffffffffffff1673ffffffffffffffffffffffffffffffffffffffff163373ffffffffffffffffffffffffffffffffffffffff1614806108ba575061088b610abb565b73ffffffffffffffffffffffffffffffffffffffff163373ffffffffffffffffffffffffffffffffffffffff16145b6108f9576040517f08c379a00000000000000000000000000000000000000000000000000000000081526004016108f090612509565b60405180910390fd5b6007600081548092919061090c906127d6565b919050555061091d82600754611203565b61094b82600860009054906101000a900473ffffffffffffffffffffffffffffffffffffffff166001611221565b6007549050919050565b600980546109629061242f565b80601f016020809104026020016040519081016040528092919081815260200182805461098e9061242f565b80156109db5780601f106109b0576101008083540402835291602001916109db565b820191906000526020600020905b8154815290600101906020018083116109be57829003601f168201915b505050505081565b60008073ffffffffffffffffffffffffffffffffffffffff168273ffffffffffffffffffffffffffffffffffffffff1603610a565760006040517f89c62b64000000000000000000000000000000000000000000000000000000008152600401610a4d9190611f81565b60405180910390fd5b600360008373ffffffffffffffffffffffffffffffffffffffff1673ffffffffffffffffffffffffffffffffffffffff168152602001908152602001600020549050919050565b610aa561117c565b610aaf6000611390565b565b6000600754905090565b6000600660009054906101000a900473ffffffffffffffffffffffffffffffffffffffff16905090565b606060018054610af49061242f565b80601f0160208091040260200160405190810160405280929190818152602001828054610b209061242f565b8015610b6d5780601f10610b4257610100808354040283529160200191610b6d565b820191906000526020600020905b815481529060010190602001808311610b5057829003601f168201915b5050505050905090565b610b7f61117c565b80600860006101000a81548173ffffffffffffffffffffffffffffffffffffffff021916908373ffffffffffffffffffffffffffffffffffffffff16021790555050565b610bcb61117c565b610bf882600860009054906101000a900473ffffffffffffffffffffffffffffffffffffffff1683611221565b5050565b600860009054906101000a900473ffffffffffffffffffffffffffffffffffffffff1681565b610c2d848484610602565b610c3984848484611456565b50505050565b6060610c4961160d565b610c528361169f565b604051602001610c63929190612880565b6040516020818303038152906040529050919050565b6000600560008473ffffffffffffffffffffffffffffffffffffffff1673ffffffffffffffffffffffffffffffffffffffff16815260200190815260200160002060008373ffffffffffffffffffffffffffffffffffffffff1673ffffffffffffffffffffffffffffffffffffffff16815260200190815260200160002060009054906101000a900460ff16905092915050565b610d1561117c565b600073ffffffffffffffffffffffffffffffffffffffff168173ffffffffffffffffffffffffffffffffffffffff1603610d875760006040517f1e4fbdf7000000000000000000000000000000000000000000000000000000008152600401610d7e9190611f81565b60405180910390fd5b610d9081611390565b50565b60007f01ffc9a7000000000000000000000000000000000000000000000000000000007bffffffffffffffffffffffffffffffffffffffffffffffffffffffff1916827bffffffffffffffffffffffffffffffffffffffffffffffffffffffff1916149050919050565b600080610e098361176d565b9050600073ffffffffffffffffffffffffffffffffffffffff168173ffffffffffffffffffffffffffffffffffffffff1603610e7c57826040517f7e273289000000000000000000000000000000000000000000000000000000008152600401610e739190612215565b60405180910390fd5b80915050919050565b60006004600083815260200190815260200160002060009054906101000a900473ffffffffffffffffffffffffffffffffffffffff169050919050565b600033905090565b610ed783838360016117aa565b505050565b600080610ee88461176d565b9050600073ffffffffffffffffffffffffffffffffffffffff168373ffffffffffffffffffffffffffffffffffffffff1614610f2a57610f2981848661196f565b5b600073ffffffffffffffffffffffffffffffffffffffff168173ffffffffffffffffffffffffffffffffffffffff1614610fbb57610f6c6000856000806117aa565b6001600360008373ffffffffffffffffffffffffffffffffffffffff1673ffffffffffffffffffffffffffffffffffffffff168152602001908152602001600020600082825403925050819055505b600073ffffffffffffffffffffffffffffffffffffffff168573ffffffffffffffffffffffffffffffffffffffff161461103e576001600360008773ffffffffffffffffffffffffffffffffffffffff1673ffffffffffffffffffffffffffffffffffffffff168152602001908152602001600020600082825401925050819055505b846002600086815260200190815260200160002060006101000a81548173ffffffffffffffffffffffffffffffffffffffff021916908373ffffffffffffffffffffffffffffffffffffffff160217905550838573ffffffffffffffffffffffffffffffffffffffff168273ffffffffffffffffffffffffffffffffffffffff167fddf252ad1be2c89b69c2b068fc378daa952ba7f163c4a11628f55a4df523b3ef60405160405180910390a4809150509392505050565b60006111056000836000610edc565b9050600073ffffffffffffffffffffffffffffffffffffffff168173ffffffffffffffffffffffffffffffffffffffff160361117857816040517f7e27328900000000000000000000000000000000000000000000000000000000815260040161116f9190612215565b60405180910390fd5b5050565b611184610ec2565b73ffffffffffffffffffffffffffffffffffffffff166111a2610abb565b73ffffffffffffffffffffffffffffffffffffffff1614611201576111c5610ec2565b6040517f118cdaa70000000000000000000000000000000000000000000000000000000081526004016111f89190611f81565b60405180910390fd5b565b61121d828260405180602001604052806000815250611a33565b5050565b600073ffffffffffffffffffffffffffffffffffffffff168273ffffffffffffffffffffffffffffffffffffffff160361129257816040517f5b08ba180000000000000000000000000000000000000000000000000000000081526004016112899190611f81565b60405180910390fd5b80600560008573ffffffffffffffffffffffffffffffffffffffff1673ffffffffffffffffffffffffffffffffffffffff16815260200190815260200160002060008473ffffffffffffffffffffffffffffffffffffffff1673ffffffffffffffffffffffffffffffffffffffff16815260200190815260200160002060006101000a81548160ff0219169083151502179055508173ffffffffffffffffffffffffffffffffffffffff168373ffffffffffffffffffffffffffffffffffffffff167f17307eab39ab6107e8899845ad3d59bd9653f200f220920489ca2b5937696c31836040516113839190611e10565b60405180910390a3505050565b6000600660009054906101000a900473ffffffffffffffffffffffffffffffffffffffff16905081600660006101000a81548173ffffffffffffffffffffffffffffffffffffffff021916908373ffffffffffffffffffffffffffffffffffffffff1602179055508173ffffffffffffffffffffffffffffffffffffffff168173ffffffffffffffffffffffffffffffffffffffff167f8be0079c531659141344cd1fd0a4f28419497f9722a3daafe3b4186f6b6457e060405160405180910390a35050565b60008373ffffffffffffffffffffffffffffffffffffffff163b1115611607578273ffffffffffffffffffffffffffffffffffffffff1663150b7a0261149a610ec2565b8685856040518563ffffffff1660e01b81526004016114bc9493929190612908565b6020604051808303816000875af19250505080156114f857506040513d601f19601f820116820180604052508101906114f59190612969565b60015b61157c573d8060008114611528576040519150601f19603f3d011682016040523d82523d6000602084013e61152d565b606091505b50600081510361157457836040517f64a0ae9200000000000000000000000000000000000000000000000000000000815260040161156b9190611f81565b60405180910390fd5b805181602001fd5b63150b7a0260e01b7bffffffffffffffffffffffffffffffffffffffffffffffffffffffff1916817bffffffffffffffffffffffffffffffffffffffffffffffffffffffff19161461160557836040517f64a0ae920000000000000000000000000000000000000000000000000000000081526004016115fc9190611f81565b60405180910390fd5b505b50505050565b60606009805461161c9061242f565b80601f01602080910402602001604051908101604052809291908181526020018280546116489061242f565b80156116955780601f1061166a57610100808354040283529160200191611695565b820191906000526020600020905b81548152906001019060200180831161167857829003601f168201915b5050505050905090565b6060600060016116ae84611a4f565b01905060008167ffffffffffffffff8111156116cd576116cc612065565b5b6040519080825280601f01601f1916602001820160405280156116ff5781602001600182028036833780820191505090505b509050600082602001820190505b600115611762578080600190039150507f3031323334353637383961626364656600000000000000000000000000000000600a86061a8153600a858161175657611755612996565b5b0494506000850361170d575b819350505050919050565b60006002600083815260200190815260200160002060009054906101000a900473ffffffffffffffffffffffffffffffffffffffff169050919050565b80806117e35750600073ffffffffffffffffffffffffffffffffffffffff168273ffffffffffffffffffffffffffffffffffffffff1614155b156119175760006117f384610dfd565b9050600073ffffffffffffffffffffffffffffffffffffffff168373ffffffffffffffffffffffffffffffffffffffff161415801561185e57508273ffffffffffffffffffffffffffffffffffffffff168173ffffffffffffffffffffffffffffffffffffffff1614155b8015611871575061186f8184610c79565b155b156118b357826040517fa9fbf51f0000000000000000000000000000000000000000000000000000000081526004016118aa9190611f81565b60405180910390fd5b811561191557838573ffffffffffffffffffffffffffffffffffffffff168273ffffffffffffffffffffffffffffffffffffffff167f8c5be1e5ebec7d5bd14f71427d1e84f3dd0314c0f7b2291e5b200ac8c7c3b92560405160405180910390a45b505b836004600085815260200190815260200160002060006101000a81548173ffffffffffffffffffffffffffffffffffffffff021916908373ffffffffffffffffffffffffffffffffffffffff16021790555050505050565b61197a838383611ba2565b611a2e57600073ffffffffffffffffffffffffffffffffffffffff168373ffffffffffffffffffffffffffffffffffffffff16036119ef57806040517f7e2732890000000000000000000000000000000000000000000000000000000081526004016119e69190612215565b60405180910390fd5b81816040517f177e802f000000000000000000000000000000000000000000000000000000008152600401611a259291906129c5565b60405180910390fd5b505050565b611a3d8383611c63565b611a4a6000848484611456565b505050565b600080600090507a184f03e93ff9f4daa797ed6e38ed64bf6a1f0100000000000000008310611aad577a184f03e93ff9f4daa797ed6e38ed64bf6a1f0100000000000000008381611aa357611aa2612996565b5b0492506040810190505b6d04ee2d6d415b85acef81000000008310611aea576d04ee2d6d415b85acef81000000008381611ae057611adf612996565b5b0492506020810190505b662386f26fc100008310611b1957662386f26fc100008381611b0f57611b0e612996565b5b0492506010810190505b6305f5e1008310611b42576305f5e1008381611b3857611b37612996565b5b0492506008810190505b6127108310611b67576127108381611b5d57611b5c612996565b5b0492506004810190505b60648310611b8a5760648381611b8057611b7f612996565b5b0492506002810190505b600a8310611b99576001810190505b80915050919050565b60008073ffffffffffffffffffffffffffffffffffffffff168373ffffffffffffffffffffffffffffffffffffffff1614158015611c5a57508273ffffffffffffffffffffffffffffffffffffffff168473ffffffffffffffffffffffffffffffffffffffff161480611c1b5750611c1a8484610c79565b5b80611c5957508273ffffffffffffffffffffffffffffffffffffffff16611c4183610e85565b73ffffffffffffffffffffffffffffffffffffffff16145b5b90509392505050565b600073ffffffffffffffffffffffffffffffffffffffff168273ffffffffffffffffffffffffffffffffffffffff1603611cd55760006040517f64a0ae92000000000000000000000000000000000000000000000000000000008152600401611ccc9190611f81565b60405180910390fd5b6000611ce383836000610edc565b9050600073ffffffffffffffffffffffffffffffffffffffff168173ffffffffffffffffffffffffffffffffffffffff1614611d575760006040517f73c6ac6e000000000000000000000000000000000000000000000000000000008152600401611d4e9190611f81565b60405180910390fd5b505050565b6000604051905090565b600080fd5b600080fd5b60007fffffffff0000000000000000000000000000000000000000000000000000000082169050919050565b611da581611d70565b8114611db057600080fd5b50565b600081359050611dc281611d9c565b92915050565b600060208284031215611dde57611ddd611d66565b5b6000611dec84828501611db3565b91505092915050565b60008115159050919050565b611e0a81611df5565b82525050565b6000602082019050611e256000830184611e01565b92915050565b600081519050919050565b600082825260208201905092915050565b60005b83811015611e65578082015181840152602081019050611e4a565b60008484015250505050565b6000601f19601f8301169050919050565b6000611e8d82611e2b565b611e978185611e36565b9350611ea7818560208601611e47565b611eb081611e71565b840191505092915050565b60006020820190508181036000830152611ed58184611e82565b905092915050565b6000819050919050565b611ef081611edd565b8114611efb57600080fd5b50565b600081359050611f0d81611ee7565b92915050565b600060208284031215611f2957611f28611d66565b5b6000611f3784828501611efe565b91505092915050565b600073ffffffffffffffffffffffffffffffffffffffff82169050919050565b6000611f6b82611f40565b9050919050565b611f7b81611f60565b82525050565b6000602082019050611f966000830184611f72565b92915050565b611fa581611f60565b8114611fb057600080fd5b50565b600081359050611fc281611f9c565b92915050565b60008060408385031215611fdf57611fde611d66565b5b6000611fed85828601611fb3565b9250506020611ffe85828601611efe565b9150509250929050565b60008060006060848603121561202157612020611d66565b5b600061202f86828701611fb3565b935050602061204086828701611fb3565b925050604061205186828701611efe565b9150509250925092565b600080fd5b600080fd5b7f4e487b7100000000000000000000000000000000000000000000000000000000600052604160045260246000fd5b61209d82611e71565b810181811067ffffffffffffffff821117156120bc576120bb612065565b5b80604052505050565b60006120cf611d5c565b90506120db8282612094565b919050565b600067ffffffffffffffff8211156120fb576120fa612065565b5b61210482611e71565b9050602081019050919050565b82818337600083830152505050565b600061213361212e846120e0565b6120c5565b90508281526020810184848401111561214f5761214e612060565b5b61215a848285612111565b509392505050565b600082601f8301126121775761217661205b565b5b8135612187848260208601612120565b91505092915050565b6000602082840312156121a6576121a5611d66565b5b600082013567ffffffffffffffff8111156121c4576121c3611d6b565b5b6121d084828501612162565b91505092915050565b6000602082840312156121ef576121ee611d66565b5b60006121fd84828501611fb3565b91505092915050565b61220f81611edd565b82525050565b600060208201905061222a6000830184612206565b92915050565b61223981611df5565b811461224457600080fd5b50565b60008135905061225681612230565b92915050565b6000806040838503121561227357612272611d66565b5b600061228185828601611fb3565b925050602061229285828601612247565b9150509250929050565b600067ffffffffffffffff8211156122b7576122b6612065565b5b6122c082611e71565b9050602081019050919050565b60006122e06122db8461229c565b6120c5565b9050828152602081018484840111156122fc576122fb612060565b5b612307848285612111565b509392505050565b600082601f8301126123245761232361205b565b5b81356123348482602086016122cd565b91505092915050565b6000806000806080858703121561235757612356611d66565b5b600061236587828801611fb3565b945050602061237687828801611fb3565b935050604061238787828801611efe565b925050606085013567ffffffffffffffff8111156123a8576123a7611d6b565b5b6123b48782880161230f565b91505092959194509250565b600080604083850312156123d7576123d6611d66565b5b60006123e585828601611fb3565b92505060206123f685828601611fb3565b9150509250929050565b7f4e487b7100000000000000000000000000000000000000000000000000000000600052602260045260246000fd5b6000600282049050600182168061244757607f821691505b60208210810361245a57612459612400565b5b50919050565b60006060820190506124756000830186611f72565b6124826020830185612206565b61248f6040830184611f72565b949350505050565b7f44655061796d656e74546f6b656e3a2063616c6c6572206973206e6f7420746860008201527f65206f776e6572206f7220617574686f72697a656420636f6e74726163740000602082015250565b60006124f3603e83611e36565b91506124fe82612497565b604082019050919050565b60006020820190508181036000830152612522816124e6565b9050919050565b60008190508160005260206000209050919050565b60006020601f8301049050919050565b600082821b905092915050565b60006008830261258b7fffffffffffffffffffffffffffffffffffffffffffffffffffffffffffffffff8261254e565b612595868361254e565b95508019841693508086168417925050509392505050565b6000819050919050565b60006125d26125cd6125c884611edd565b6125ad565b611edd565b9050919050565b6000819050919050565b6125ec836125b7565b6126006125f8826125d9565b84845461255b565b825550505050565b600090565b612615612608565b6126208184846125e3565b505050565b5b818110156126445761263960008261260d565b600181019050612626565b5050565b601f8211156126895761265a81612529565b6126638461253e565b81016020851015612672578190505b61268661267e8561253e565b830182612625565b50505b505050565b600082821c905092915050565b60006126ac6000198460080261268e565b1980831691505092915050565b60006126c5838361269b565b9150826002028217905092915050565b6126de82611e2b565b67ffffffffffffffff8111156126f7576126f6612065565b5b612701825461242f565b61270c828285612648565b600060209050601f83116001811461273f576000841561272d578287015190505b61273785826126b9565b86555061279f565b601f19841661274d86612529565b60005b8281101561277557848901518255600182019150602085019450602081019050612750565b86831015612792578489015161278e601f89168261269b565b8355505b6001600288020188555050505b505050505050565b7f4e487b7100000000000000000000000000000000000000000000000000000000600052601160045260246000fd5b60006127e182611edd565b91507fffffffffffffffffffffffffffffffffffffffffffffffffffffffffffffffff8203612813576128126127a7565b5b600182019050919050565b600081905092915050565b600061283482611e2b565b61283e818561281e565b935061284e818560208601611e47565b80840191505092915050565b7f2e6a736f6e000000000000000000000000000000000000000000000000000000815250565b600061288c8285612829565b91506128988284612829565b91506128a38261285a565b6005820191508190509392505050565b600081519050919050565b600082825260208201905092915050565b60006128da826128b3565b6128e481856128be565b93506128f4818560208601611e47565b6128fd81611e71565b840191505092915050565b600060808201905061291d6000830187611f72565b61292a6020830186611f72565b6129376040830185612206565b818103606083015261294981846128cf565b905095945050505050565b60008151905061296381611d9c565b92915050565b60006020828403121561297f5761297e611d66565b5b600061298d84828501612954565b91505092915050565b7f4e487b7100000000000000000000000000000000000000000000000000000000600052601260045260246000fd5b60006040820190506129da6000830185611f72565b6129e76020830184612206565b939250505056fea264697066735822122064e6900d85a386ba08aef1ce2e7f607f5e626fff1a462571c94063fb9a32be2b64736f6c63430008140033",
  "linkReferences": {},
  "deployedLinkReferences": {}
}