{
  "_format": "hh-sol-artifact-1",
  "contractName": "DePayment",
  "sourceName": "contracts/DePayment.sol",
  "abi": [
    {
      "inputs": [
        {
          "internalType": "address",
          "name": "_nftAddress",
          "type": "address"
        },
        {
          "internalType": "address",
          "name": "_coinAddress",
          "type": "address"
        }
      ],
      "stateMutability": "nonpayable",
      "type": "constructor"
    },
    {
      "inputs": [
        {
          "internalType": "address",
          "name": "owner",
          "type": "address"
        }
      ],
      "name": "OwnableInvalidOwner",
      "type": "error"
    },
    {
      "inputs": [
        {
          "internalType": "address",
          "name": "account",
          "type": "address"
        }
      ],
      "name": "OwnableUnauthorizedAccount",
      "type": "error"
    },
    {
      "anonymous": false,
      "inputs": [
        {
          "indexed": true,
          "internalType": "address",
          "name": "customer",
          "type": "address"
        },
        {
          "indexed": true,
          "internalType": "uint256",
          "name": "tokenId",
          "type": "uint256"
        },
        {
          "indexed": true,
          "internalType": "uint256",
          "name": "date",
          "type": "uint256"
        }
      ],
      "name": "Granted",
      "type": "event"
    },
    {
      "anonymous": false,
      "inputs": [
        {
          "indexed": true,
          "internalType": "address",
          "name": "previousOwner",
          "type": "address"
        },
        {
          "indexed": true,
          "internalType": "address",
          "name": "newOwner",
          "type": "address"
        }
      ],
      "name": "OwnershipTransferred",
      "type": "event"
    },
    {
      "anonymous": false,
      "inputs": [
        {
          "indexed": true,
          "internalType": "address",
          "name": "customer",
          "type": "address"
        },
        {
          "indexed": true,
          "internalType": "uint256",
          "name": "date",
          "type": "uint256"
        },
        {
          "indexed": true,
          "internalType": "uint256",
          "name": "amoun",
          "type": "uint256"
        }
      ],
      "name": "Payment",
      "type": "event"
    },
    {
      "anonymous": false,
      "inputs": [
        {
          "indexed": true,
          "internalType": "address",
          "name": "customer",
          "type": "address"
        },
        {
          "indexed": true,
          "internalType": "uint256",
          "name": "tokenId",
          "type": "uint256"
        },
        {
          "indexed": true,
          "internalType": "uint256",
          "name": "date",
          "type": "uint256"
        }
      ],
      "name": "Removed",
      "type": "event"
    },
    {
      "anonymous": false,
      "inputs": [
        {
          "indexed": true,
          "internalType": "address",
          "name": "customer",
          "type": "address"
        },
        {
          "indexed": true,
          "internalType": "uint256",
          "name": "tokenId",
          "type": "uint256"
        },
        {
          "indexed": true,
          "internalType": "uint256",
          "name": "date",
          "type": "uint256"
        }
      ],
      "name": "Revoked",
      "type": "event"
    },
    {
      "inputs": [],
      "name": "coinAddress",
      "outputs": [
        {
          "internalType": "contract IERC20",
          "name": "",
          "type": "address"
        }
      ],
      "stateMutability": "view",
      "type": "function"
    },
    {
      "inputs": [
        {
          "internalType": "uint256",
          "name": "",
          "type": "uint256"
        }
      ],
      "name": "customers",
      "outputs": [
        {
          "internalType": "address",
          "name": "",
          "type": "address"
        }
      ],
      "stateMutability": "view",
      "type": "function"
    },
    {
      "inputs": [],
      "name": "getCustomers",
      "outputs": [
        {
          "internalType": "address[]",
          "name": "",
          "type": "address[]"
        }
      ],
      "stateMutability": "view",
      "type": "function"
    },
    {
      "inputs": [],
      "name": "monthlyAmount",
      "outputs": [
        {
          "internalType": "uint256",
          "name": "",
          "type": "uint256"
        }
      ],
      "stateMutability": "view",
      "type": "function"
    },
    {
      "inputs": [],
      "name": "nftAddress",
      "outputs": [
        {
          "internalType": "contract IDePaymentToken",
          "name": "",
          "type": "address"
        }
      ],
      "stateMutability": "view",
      "type": "function"
    },
    {
      "inputs": [
        {
          "internalType": "address",
          "name": "",
          "type": "address"
        },
        {
          "internalType": "address",
          "name": "",
          "type": "address"
        },
        {
          "internalType": "uint256",
          "name": "",
          "type": "uint256"
        },
        {
          "internalType": "bytes",
          "name": "",
          "type": "bytes"
        }
      ],
      "name": "onERC721Received",
      "outputs": [
        {
          "internalType": "bytes4",
          "name": "",
          "type": "bytes4"
        }
      ],
      "stateMutability": "nonpayable",
      "type": "function"
    },
    {
      "inputs": [],
      "name": "owner",
      "outputs": [
        {
          "internalType": "address",
          "name": "",
          "type": "address"
        }
      ],
      "stateMutability": "view",
      "type": "function"
    },
    {
      "inputs": [
        {
          "internalType": "address",
          "name": "_customer",
          "type": "address"
        }
      ],
      "name": "pay",
      "outputs": [],
      "stateMutability": "nonpayable",
      "type": "function"
    },
    {
      "inputs": [
        {
          "internalType": "address",
          "name": "",
          "type": "address"
        }
      ],
      "name": "payments",
      "outputs": [
        {
          "internalType": "uint256",
          "name": "tokenId",
          "type": "uint256"
        },
        {
          "internalType": "uint256",
          "name": "nextPayment",
          "type": "uint256"
        },
        {
          "internalType": "uint256",
          "name": "index",
          "type": "uint256"
        }
      ],
      "stateMutability": "view",
      "type": "function"
    },
    {
      "inputs": [
        {
          "internalType": "address",
          "name": "_customer",
          "type": "address"
        }
      ],
      "name": "removeCustomer",
      "outputs": [],
      "stateMutability": "nonpayable",
      "type": "function"
    },
    {
      "inputs": [],
      "name": "renounceOwnership",
      "outputs": [],
      "stateMutability": "nonpayable",
      "type": "function"
    },
    {
      "inputs": [
        {
          "internalType": "uint256",
          "name": "_amount",
          "type": "uint256"
        }
      ],
      "name": "setMonthlyAmount",
      "outputs": [],
      "stateMutability": "nonpayable",
      "type": "function"
    },
    {
      "inputs": [],
      "name": "thirtyDaysInSeconds",
      "outputs": [
        {
          "internalType": "uint256",
          "name": "",
          "type": "uint256"
        }
      ],
      "stateMutability": "view",
      "type": "function"
    },
    {
      "inputs": [
        {
          "internalType": "address",
          "name": "newOwner",
          "type": "address"
        }
      ],
      "name": "transferOwnership",
      "outputs": [],
      "stateMutability": "nonpayable",
      "type": "function"
    }
  ],
  "bytecode": "0x608060405266038d7ea4c6800060035562278d006004553480156200002357600080fd5b5060405162001ec938038062001ec9833981810160405281019062000049919062000289565b33600073ffffffffffffffffffffffffffffffffffffffff168173ffffffffffffffffffffffffffffffffffffffff1603620000bf5760006040517f1e4fbdf7000000000000000000000000000000000000000000000000000000008152600401620000b69190620002e1565b60405180910390fd5b620000d0816200015b60201b60201c565b5081600160006101000a81548173ffffffffffffffffffffffffffffffffffffffff021916908373ffffffffffffffffffffffffffffffffffffffff16021790555080600260006101000a81548173ffffffffffffffffffffffffffffffffffffffff021916908373ffffffffffffffffffffffffffffffffffffffff1602179055505050620002fe565b60008060009054906101000a900473ffffffffffffffffffffffffffffffffffffffff169050816000806101000a81548173ffffffffffffffffffffffffffffffffffffffff021916908373ffffffffffffffffffffffffffffffffffffffff1602179055508173ffffffffffffffffffffffffffffffffffffffff168173ffffffffffffffffffffffffffffffffffffffff167f8be0079c531659141344cd1fd0a4f28419497f9722a3daafe3b4186f6b6457e060405160405180910390a35050565b600080fd5b600073ffffffffffffffffffffffffffffffffffffffff82169050919050565b6000620002518262000224565b9050919050565b620002638162000244565b81146200026f57600080fd5b50565b600081519050620002838162000258565b92915050565b60008060408385031215620002a357620002a26200021f565b5b6000620002b38582860162000272565b9250506020620002c68582860162000272565b9150509250929050565b620002db8162000244565b82525050565b6000602082019050620002f86000830184620002d0565b92915050565b611bbb806200030e6000396000f3fe608060405234801561001057600080fd5b50600436106100ea5760003560e01c8063939022871161008c578063e2982c2111610066578063e2982c2114610225578063f1ba712714610257578063f2fde38b14610275578063fdc61dd114610291576100ea565b806393902287146101bb578063a9cbdf12146101d7578063c0abda2a146101f5576100ea565b80636588439c116100c85780636588439c14610159578063715018a6146101775780638da5cb5b146101815780638eb06ccf1461019f576100ea565b80630c11dedd146100ef578063150b7a021461010b5780635bf8633a1461013b575b600080fd5b61010960048036038101906101049190611385565b6102af565b005b6101256004803603810190610120919061152e565b610d50565b60405161013291906115ec565b60405180910390f35b610143610d64565b6040516101509190611666565b60405180910390f35b610161610d8a565b60405161016e9190611690565b60405180910390f35b61017f610d90565b005b610189610da4565b60405161019691906116ba565b60405180910390f35b6101b960048036038101906101b49190611385565b610dcd565b005b6101d560048036038101906101d091906116d5565b611005565b005b6101df611017565b6040516101ec9190611690565b60405180910390f35b61020f600480360381019061020a91906116d5565b61101d565b60405161021c91906116ba565b60405180910390f35b61023f600480360381019061023a9190611385565b61105c565b60405161024e93929190611702565b60405180910390f35b61025f611086565b60405161026c91906117f7565b60405180910390f35b61028f600480360381019061028a9190611385565b611114565b005b61029961119a565b6040516102a6919061183a565b60405180910390f35b6102b76111c0565b600042600560008473ffffffffffffffffffffffffffffffffffffffff1673ffffffffffffffffffffffffffffffffffffffff1681526020019081526020016000206001015411159050600080600560008573ffffffffffffffffffffffffffffffffffffffff1673ffffffffffffffffffffffffffffffffffffffff168152602001908152602001600020600101541490506000600354600260009054906101000a900473ffffffffffffffffffffffffffffffffffffffff1673ffffffffffffffffffffffffffffffffffffffff166370a08231866040518263ffffffff1660e01b81526004016103aa91906116ba565b602060405180830381865afa1580156103c7573d6000803e3d6000fd5b505050506040513d601f19601f820116820180604052508101906103eb919061186a565b101590506000600354600260009054906101000a900473ffffffffffffffffffffffffffffffffffffffff1673ffffffffffffffffffffffffffffffffffffffff1663dd62ed3e87306040518363ffffffff1660e01b8152600401610451929190611897565b602060405180830381865afa15801561046e573d6000803e3d6000fd5b505050506040513d601f19601f82011682018060405250810190610492919061186a565b10159050828061049f5750835b80156104b257508015806104b1575081155b5b1561065a578261061f57600160009054906101000a900473ffffffffffffffffffffffffffffffffffffffff1673ffffffffffffffffffffffffffffffffffffffff166342842e0e8630600560008a73ffffffffffffffffffffffffffffffffffffffff1673ffffffffffffffffffffffffffffffffffffffff168152602001908152602001600020600001546040518463ffffffff1660e01b815260040161055d939291906118c0565b600060405180830381600087803b15801561057757600080fd5b505af115801561058b573d6000803e3d6000fd5b5050505042600560008773ffffffffffffffffffffffffffffffffffffffff1673ffffffffffffffffffffffffffffffffffffffff168152602001908152602001600020600001548673ffffffffffffffffffffffffffffffffffffffff167f486e02409c32040cba4d1675ead85cba092960333a3e8b18cb06e235cef29bfc60405160405180910390a450505050610d4d565b6040517f08c379a000000000000000000000000000000000000000000000000000000000815260040161065190611954565b60405180910390fd5b821561095557600160009054906101000a900473ffffffffffffffffffffffffffffffffffffffff1673ffffffffffffffffffffffffffffffffffffffff16636a627842866040518263ffffffff1660e01b81526004016106bb91906116ba565b6020604051808303816000875af11580156106da573d6000803e3d6000fd5b505050506040513d601f19601f820116820180604052508101906106fe919061186a565b506040518060600160405280600160009054906101000a900473ffffffffffffffffffffffffffffffffffffffff1673ffffffffffffffffffffffffffffffffffffffff166383c4c00d6040518163ffffffff1660e01b8152600401602060405180830381865afa158015610777573d6000803e3d6000fd5b505050506040513d601f19601f8201168201806040525081019061079b919061186a565b8152602001600454426107ae91906119a3565b8152602001600680549050815250600560008773ffffffffffffffffffffffffffffffffffffffff1673ffffffffffffffffffffffffffffffffffffffff1681526020019081526020016000206000820151816000015560208201518160010155604082015181600201559050506006859080600181540180825580915050600190039060005260206000200160009091909190916101000a81548173ffffffffffffffffffffffffffffffffffffffff021916908373ffffffffffffffffffffffffffffffffffffffff16021790555042600160009054906101000a900473ffffffffffffffffffffffffffffffffffffffff1673ffffffffffffffffffffffffffffffffffffffff166383c4c00d6040518163ffffffff1660e01b8152600401602060405180830381865afa1580156108ed573d6000803e3d6000fd5b505050506040513d601f19601f82011682018060405250810190610911919061186a565b8673ffffffffffffffffffffffffffffffffffffffff167f830cad818db7fa43ac6053f645136c5d74a8a18439a8e0ed6735fbddff43fdd660405160405180910390a45b828061095e5750835b61099d576040517f08c379a000000000000000000000000000000000000000000000000000000000815260040161099490611a23565b60405180910390fd5b600260009054906101000a900473ffffffffffffffffffffffffffffffffffffffff1673ffffffffffffffffffffffffffffffffffffffff166323b872dd86306003546040518463ffffffff1660e01b81526004016109fe939291906118c0565b6020604051808303816000875af1158015610a1d573d6000803e3d6000fd5b505050506040513d601f19601f82011682018060405250810190610a419190611a7b565b508473ffffffffffffffffffffffffffffffffffffffff16600160009054906101000a900473ffffffffffffffffffffffffffffffffffffffff1673ffffffffffffffffffffffffffffffffffffffff16636352211e600560008973ffffffffffffffffffffffffffffffffffffffff1673ffffffffffffffffffffffffffffffffffffffff168152602001908152602001600020600001546040518263ffffffff1660e01b8152600401610af69190611690565b602060405180830381865afa158015610b13573d6000803e3d6000fd5b505050506040513d601f19601f82011682018060405250810190610b379190611abd565b73ffffffffffffffffffffffffffffffffffffffff1614610cad57600160009054906101000a900473ffffffffffffffffffffffffffffffffffffffff1673ffffffffffffffffffffffffffffffffffffffff166342842e0e3087600560008a73ffffffffffffffffffffffffffffffffffffffff1673ffffffffffffffffffffffffffffffffffffffff168152602001908152602001600020600001546040518463ffffffff1660e01b8152600401610bf3939291906118c0565b600060405180830381600087803b158015610c0d57600080fd5b505af1158015610c21573d6000803e3d6000fd5b5050505042600560008773ffffffffffffffffffffffffffffffffffffffff1673ffffffffffffffffffffffffffffffffffffffff168152602001908152602001600020600001548673ffffffffffffffffffffffffffffffffffffffff167f830cad818db7fa43ac6053f645136c5d74a8a18439a8e0ed6735fbddff43fdd660405160405180910390a45b60045442610cbb91906119a3565b600560008773ffffffffffffffffffffffffffffffffffffffff1673ffffffffffffffffffffffffffffffffffffffff16815260200190815260200160002060010181905550600354428673ffffffffffffffffffffffffffffffffffffffff167f9643c1b5b172b26d5f028be7fe646349bd5e3cd9367bb18f9e825afa828b7d9360405160405180910390a4505050505b50565b600063150b7a0260e01b9050949350505050565b600160009054906101000a900473ffffffffffffffffffffffffffffffffffffffff1681565b60035481565b610d986111c0565b610da26000611247565b565b60008060009054906101000a900473ffffffffffffffffffffffffffffffffffffffff16905090565b610dd56111c0565b6000600560008373ffffffffffffffffffffffffffffffffffffffff1673ffffffffffffffffffffffffffffffffffffffff168152602001908152602001600020604051806060016040529081600082015481526020016001820154815260200160028201548152505090506000816000015103610e88576040517f08c379a0000000000000000000000000000000000000000000000000000000008152600401610e7f90611b36565b60405180910390fd5b600160009054906101000a900473ffffffffffffffffffffffffffffffffffffffff1673ffffffffffffffffffffffffffffffffffffffff166342966c6882600001516040518263ffffffff1660e01b8152600401610ee79190611690565b600060405180830381600087803b158015610f0157600080fd5b505af1158015610f15573d6000803e3d6000fd5b50505050600560008373ffffffffffffffffffffffffffffffffffffffff1673ffffffffffffffffffffffffffffffffffffffff1681526020019081526020016000206000808201600090556001820160009055600282016000905550506006816040015181548110610f8b57610f8a611b56565b5b9060005260206000200160006101000a81549073ffffffffffffffffffffffffffffffffffffffff02191690554281600001518373ffffffffffffffffffffffffffffffffffffffff167fe3d0f1a4676b30f6f1603009186ab4512118de422f073c944d533e06345b5a5860405160405180910390a45050565b61100d6111c0565b8060038190555050565b60045481565b6006818154811061102d57600080fd5b906000526020600020016000915054906101000a900473ffffffffffffffffffffffffffffffffffffffff1681565b60056020528060005260406000206000915090508060000154908060010154908060020154905083565b6060600680548060200260200160405190810160405280929190818152602001828054801561110a57602002820191906000526020600020905b8160009054906101000a900473ffffffffffffffffffffffffffffffffffffffff1673ffffffffffffffffffffffffffffffffffffffff16815260200190600101908083116110c0575b5050505050905090565b61111c6111c0565b600073ffffffffffffffffffffffffffffffffffffffff168173ffffffffffffffffffffffffffffffffffffffff160361118e5760006040517f1e4fbdf700000000000000000000000000000000000000000000000000000000815260040161118591906116ba565b60405180910390fd5b61119781611247565b50565b600260009054906101000a900473ffffffffffffffffffffffffffffffffffffffff1681565b6111c861130b565b73ffffffffffffffffffffffffffffffffffffffff166111e6610da4565b73ffffffffffffffffffffffffffffffffffffffff16146112455761120961130b565b6040517f118cdaa700000000000000000000000000000000000000000000000000000000815260040161123c91906116ba565b60405180910390fd5b565b60008060009054906101000a900473ffffffffffffffffffffffffffffffffffffffff169050816000806101000a81548173ffffffffffffffffffffffffffffffffffffffff021916908373ffffffffffffffffffffffffffffffffffffffff1602179055508173ffffffffffffffffffffffffffffffffffffffff168173ffffffffffffffffffffffffffffffffffffffff167f8be0079c531659141344cd1fd0a4f28419497f9722a3daafe3b4186f6b6457e060405160405180910390a35050565b600033905090565b6000604051905090565b600080fd5b600080fd5b600073ffffffffffffffffffffffffffffffffffffffff82169050919050565b600061135282611327565b9050919050565b61136281611347565b811461136d57600080fd5b50565b60008135905061137f81611359565b92915050565b60006020828403121561139b5761139a61131d565b5b60006113a984828501611370565b91505092915050565b6000819050919050565b6113c5816113b2565b81146113d057600080fd5b50565b6000813590506113e2816113bc565b92915050565b600080fd5b600080fd5b6000601f19601f8301169050919050565b7f4e487b7100000000000000000000000000000000000000000000000000000000600052604160045260246000fd5b61143b826113f2565b810181811067ffffffffffffffff8211171561145a57611459611403565b5b80604052505050565b600061146d611313565b90506114798282611432565b919050565b600067ffffffffffffffff82111561149957611498611403565b5b6114a2826113f2565b9050602081019050919050565b82818337600083830152505050565b60006114d16114cc8461147e565b611463565b9050828152602081018484840111156114ed576114ec6113ed565b5b6114f88482856114af565b509392505050565b600082601f830112611515576115146113e8565b5b81356115258482602086016114be565b91505092915050565b600080600080608085870312156115485761154761131d565b5b600061155687828801611370565b945050602061156787828801611370565b9350506040611578878288016113d3565b925050606085013567ffffffffffffffff81111561159957611598611322565b5b6115a587828801611500565b91505092959194509250565b60007fffffffff0000000000000000000000000000000000000000000000000000000082169050919050565b6115e6816115b1565b82525050565b600060208201905061160160008301846115dd565b92915050565b6000819050919050565b600061162c61162761162284611327565b611607565b611327565b9050919050565b600061163e82611611565b9050919050565b600061165082611633565b9050919050565b61166081611645565b82525050565b600060208201905061167b6000830184611657565b92915050565b61168a816113b2565b82525050565b60006020820190506116a56000830184611681565b92915050565b6116b481611347565b82525050565b60006020820190506116cf60008301846116ab565b92915050565b6000602082840312156116eb576116ea61131d565b5b60006116f9848285016113d3565b91505092915050565b60006060820190506117176000830186611681565b6117246020830185611681565b6117316040830184611681565b949350505050565b600081519050919050565b600082825260208201905092915050565b6000819050602082019050919050565b61176e81611347565b82525050565b60006117808383611765565b60208301905092915050565b6000602082019050919050565b60006117a482611739565b6117ae8185611744565b93506117b983611755565b8060005b838110156117ea5781516117d18882611774565b97506117dc8361178c565b9250506001810190506117bd565b5085935050505092915050565b600060208201905081810360008301526118118184611799565b905092915050565b600061182482611633565b9050919050565b61183481611819565b82525050565b600060208201905061184f600083018461182b565b92915050565b600081519050611864816113bc565b92915050565b6000602082840312156118805761187f61131d565b5b600061188e84828501611855565b91505092915050565b60006040820190506118ac60008301856116ab565b6118b960208301846116ab565b9392505050565b60006060820190506118d560008301866116ab565b6118e260208301856116ab565b6118ef6040830184611681565b949350505050565b600082825260208201905092915050565b7f496e73756666696369656e742066756e64730000000000000000000000000000600082015250565b600061193e6012836118f7565b915061194982611908565b602082019050919050565b6000602082019050818103600083015261196d81611931565b9050919050565b7f4e487b7100000000000000000000000000000000000000000000000000000000600052601160045260246000fd5b60006119ae826113b2565b91506119b9836113b2565b92508282019050808211156119d1576119d0611974565b5b92915050565b7f5061796d656e7420616c7265616479206d616465000000000000000000000000600082015250565b6000611a0d6014836118f7565b9150611a18826119d7565b602082019050919050565b60006020820190508181036000830152611a3c81611a00565b9050919050565b60008115159050919050565b611a5881611a43565b8114611a6357600080fd5b50565b600081519050611a7581611a4f565b92915050565b600060208284031215611a9157611a9061131d565b5b6000611a9f84828501611a66565b91505092915050565b600081519050611ab781611359565b92915050565b600060208284031215611ad357611ad261131d565b5b6000611ae184828501611aa8565b91505092915050565b7f437573746f6d6572206e6f7420666f756e640000000000000000000000000000600082015250565b6000611b206012836118f7565b9150611b2b82611aea565b602082019050919050565b60006020820190508181036000830152611b4f81611b13565b9050919050565b7f4e487b7100000000000000000000000000000000000000000000000000000000600052603260045260246000fdfea26469706673582212203141f775822c43c0a29b638be90dab6b2c59265e2290709399c79e6fe3e7116964736f6c63430008140033",
  "linkReferences": {},
  "deployedLinkReferences": {}
}